S0120000506F7765724D657465722E7372656308
S113000004C100001FC100001DC100001BC100008D
S113001019C1000017C10000A3C10000C5C1000040
S1130020E7C1000009C200000DC100000BC10000BF
S113003009C100000C949C0E0C9461090C948A096B
S11300400C94B3090C94DC090C94050A0C942E0A44
S11300500C94570A0C94800A0C94A90A0C94D20AA2
S1130060F1C00000EFC00000EDC00000EBC00000D4
S1130070E9C00000E7C00000E5C00000E3C00000E4
S1130080E1C00000DFC00000DDC00000DBC00000F4
S1130090D9C00000D7C00000D5C00000D3C0000004
S11300A0D1C00000CFC00000CDC00000CBC0000014
S11300B0C9C00000C7C000000C94BF0E0C94950C7E
S11300C00C94BE0C0C94E70C0C94100D0C94390D8C
S11300D00C94620DB7C00000B5C00000B3C00000AE
S11300E0B1C00000AFC00000ADC00000ABC0000054
S11300F0A9C00000A7C00000A5C00000A3C0000064
S1130100A1C000009FC000009DC000009BC0000073
S113011099C0000097C0000095C0000042C70000CD
S11301206EC700009AC70000C6C700008BC000005D
S113013089C000000C94FB0A0C94240B0C944D0B06
S11301400C94760B0C949F0B0C94C80B0C94F10B31
S11301500C941A0C0C94430C0C946C0C73C000009B
S113016071C000006FC000006DC000006BC00000D3
S113017069C0000067C0000065C0000063C00000E3
S113018061C000005FC000005DC000005BC00000F3
S113019059C0000057C0000055C0000053C0000003
S11301A051C000004FC000004DC000004BC0000013
S11301B049C0000047C0000045C0000043C0000023
S11301C041C000003FC000003DC000003BC0000033
S11301D039C0000037C0000035C0000033C0000043
S11301E031C000002FC000002DC000002BC0000053
S11301F029C000000C94BC1F0C947820BF1BAD1BBD
S1130200B01BB31BB61BB91BBC1B11241FBECFEF05
S1130210CDBFDFE2DEBF10E2A0E0B0E2EEE4F6E440
S113022002C005900D92A03CB107D9F724E2A0ECDE
S1130230B0E201C01D92A53FB207E1F70E948921F7
S11302400C942523DDCECF93DF93282F30E0F901E2
S11302507196E295F295F07FFE27E07FFE27A0E0FD
S1130260B1E014969C9114971396AC91A9014C5F3C
S11302705F4F61E070E0EB01042E02C0CC0FDD1F84
S11302800A94E2F7082E02C0660F771F0A94E2F779
S11302906C2BA623B0E0ED01042E02C0D595C795C2
S11302A00A94E2F7C0FD1BC0082E02C0B595A795BD
S11302B00A94E2F7A0FD15C0692370E0DB0102C0D7
S11302C0B595A7954A95E2F7A0FD0DC0AB0102C014
S11302D0559547958A95E2F7CA01817005C084E077
S11302E003C083E001C082E0918190639183F901AE
S11302F0EE0FFF1FE556FD4D0190F081E02D309784
S113030009F00995DF91CF91089561E080E00E94A2
S11303104A148FB7F894EAE9F4E290819F5F9083DE
S11303208FBFE0E0F1E080E4808380E8808308957B
S11303301092000161E080E00E9456148FB7F89497
S1130340EAE9F4E29081915090838FBF0895E82FF9
S1130350F0E0EE0FFF1FE556FD4D608371830895B5
S11303601F920F920FB60F9211242F933F934F9326
S11303705F936F937F938F939F93AF93BF93EF9309
S1130380FF9380E060DFFF91EF91BF91AF919F9168
S11303908F917F916F915F914F913F912F910F902A
S11303A00FBE0F901F9018951F920F920FB60F92C9
S11303B011242F933F934F935F936F937F938F9366
S11303C09F93AF93BF93EF93FF9381E03CDFFF9143
S11303D0EF91BF91AF919F918F917F916F915F91B9
S11303E04F913F912F910F900FBE0F901F90189532
S11303F01F920F920FB60F9211242F933F934F9396
S11304005F936F937F938F939F93AF93BF93EF9378
S1130410FF9382E018DFFF91EF91BF91AF919F911D
S11304208F917F916F915F914F913F912F910F9099
S11304300FBE0F901F9018951F920F920FB60F9238
S113044011242F933F934F935F936F937F938F93D5
S11304509F93AF93BF93EF93FF9383E0F4DEFF91F9
S1130460EF91BF91AF919F918F917F916F915F9128
S11304704F913F912F910F900FBE0F901F901895A1
S1130480DB01E82FF0E07196E295F295F07FFE270C
S1130490E07FFE272FB7F89419968C9119978487DB
S11304A01A968C911A978587168617968C911797AA
S11304B0808718968C9118978187128612968C9152
S11304C01297828313968C911397838314968D913C
S11304D09C9115978483958316968C9116978683A1
S11304E011968C91119781838C918F7780832FBF84
S11304F008954F925F926F927F928F929F92AF92E4
S1130500BF92CF92DF92EF92FF920F931F93CF93FC
S1130510DF93EC014A015B0128013901D901C801CB
S1130520689412F8B695A795979587951694D1F780
S1130530B901A801032E36E176956795579547953D
S11305403A95D1F7302D2C8122FD08C0B695A79598
S11305509795879576956795579547958815990545
S1130560AA05BB0508F4A6C084169506A606B70618
S113057008F4A2C08C8182FD04C0880C991CAA1CBA
S1130580BB1CC301B201A50194010E94F4222F3FB8
S113059031054105510508F491C0C12CD12C7601D7
S11305A0CA9419EF05C02C153D054E055F0568F08A
S11305B0CC0CDD1CEE1CFF1C1D3F14F46894C0F829
S11305C01F5F173081F7212F50C0212F11230CF00A
S11305D04CC0D501C401880F991FAA1FBB1F880FE7
S11305E0991FAA1FBB1F880F991FAA1FBB1F481A58
S11305F0590A6A0A7B0A1E3FF4F46DEF7FEF611B10
S1130600710917FD739504C0440C551C661C771CB6
S11306106A95D2F7D501C401B695A79597958795A4
S1130620BC01CD01640D751D861D971DA5019401A6
S11306300E94F42236C023E0210FD501C40104C076
S1130640880F991FAA1FBB1F2A95D2F79C01AD01E1
S1130650B695A79597958795BC01CD01640D751D39
S1130660861D971D0E94F4221CC02D5FD501C40174
S113067004C0880F991FAA1FBB1F2A95D2F79C019B
S1130680AD01B695A79597958795BC01CD01640DED
S1130690751D861D971D0E94F422215031094109C0
S11306A05109832F8F701295107F182B1F832E836F
S11306B081E018C080E016C080E014C0D501C401F8
S11306C0880F991FAA1FBB1F880F991FAA1FBB1F42
S11306D0880F991FAA1FBB1F481A590A6A0A7B0A66
S11306E019EF8BCFDF91CF911F910F91FF90EF9076
S11306F0DF90CF90BF90AF909F908F907F906F903E
S11307005F904F9008950F931F93CF93DF93EC0165
S11307108B01009709F4D6C0803C910529F460E16F
S113072080E00E944A14CEC0C11584E0D80729F4A1
S113073064E080E00E944A14C5C0C038E1E0DE07EE
S113074029F462E080E00E944A14BCC0C115F1E0C3
S1130750DF0729F461E080E00E944A14B3C0C03886
S113076083E0D80729F461E081E00E944A14AAC01A
S1130770C115E2E0DE0729F462E081E00E944A1438
S1130780A1C0C032F3E0DF0729F464E082E00E94F4
S11307904A1498C0C11588E0D80729F461E083E0C1
S11307A00E944A148FC0C115E9E0DE0729F461E014
S11307B084E00E944A1486C0C115FAE0DF0729F4D8
S11307C061E085E00E944A147DC0C03488E0D80707
S11307D029F462E083E00E944A1474C0C034E9E062
S11307E0DE0729F462E084E00E944A146BC0C03939
S11307F0F8E0DF0729F464E083E00E944A1462C051
S1130800C03989E0D80729F464E084E00E944A14DE
S113081059C0C039EAE0DE0729F464E085E00E94AB
S11308204A1450C0C03CF8E0DF0729F468E083E0D4
S11308300E944A1447C0C03C89E0D80729F468E004
S113084084E00E944A143EC0C03AE8E0DE0729F47E
S113085060E183E00E944A1435C0C03AF9E0DF0742
S113086029F460E184E00E944A142CC0C03A8AE072
S1130870D80729F460E185E00E944A1423C0C03BF4
S1130880E8E0DE0729F460E283E00E944A141AC01B
S1130890C03BF9E0DF0729F460E284E00E944A14D7
S11308A011C0C03884E0D80729F460E483E00E94D2
S11308B04A1408C0C03AE4E0DE0721F460E485E0AD
S11308C00E944A148D818F738D83F80194818581F0
S11308D0892B9681992311F098E001C090E0892B2F
S11308E08D83F801408151816281738100E01BE1B5
S11308F027EB30E0CE01FDDD9C8198609C839C81D8
S113090090619C83DF91CF911F910F910895F8948A
S1130910E0E0F1E0348123812171822F90E092950F
S113092082958F7089279F708927892B69F420FD10
S11309300BC03171832F90E0929582958F70892737
S11309409F708927892BC9F5E091C1208E2F90E0F3
S113095022E4E29FF0011124ED51FD4D208121306C
S113096061F542E4489F9001499F300D1124C9016B
S11309708D559D4DFC01E05CFF4F24E020833196B2
S1130980808190E02FB7F894E0E1F1E084839583CF
S11309902FBF8091C12022E4829FC00111248D5574
S11309A09D4D2FB7F8948087918712862FBF8FB7FC
S11309B0F8949081906890838FBF789408954091C3
S11309C0C120842F90E022E4429FF0011124ED51D4
S11309D0FD4D2081243029F02091C0202F5F2093E9
S11309E0C02052E4589F9001599F300D11242D5579
S11309F03D4DF901E05CFF4F52E050833196108287
S1130A0004971CF01092C12003C04F5F4093C12093
S1130A10E091C1208E2F90E022E4E29FF0011124A6
S1130A20ED51FD4D2081213061F542E4489F900154
S1130A30499F300D1124C9018D559D4DFC01E05C89
S1130A40FF4F24E020833196808190E02FB7F89403
S1130A50E0E1F1E0848395832FBF8091C12022E4FB
S1130A60829FC00111248D559D4D2FB7F894808726
S1130A70918712862FBF8FB7F894908190689083E6
S1130A808FBF0895833049F48FB7F894E0E1F1E023
S1130A9090819F7790838FBF92CF0895CF93DF93F8
S1130AA0CDB7DEB72B97CDBFDEBFFE0131968BE00D
S1130AB0DF011D928A95E9F728DCE0E0F1E024816A
S1130AC08381982F917184FD04C090FD02C024FDA0
S1130AD0F6CF62E475E080E03ADC8A81807F85604D
S1130AE08A8389818C7F9CE49C8390ED9B838460C2
S1130AF0898380EA98E08A879B87BE016F5F7F4F76
S1130B0080E0BEDCE4EEF2E28EE294E222E0DF0179
S1130B1011972C931082EE5BFF4FE817F907B9F792
S1130B201092C2201092C1202B96CDBFDEBFDF9160
S1130B30CF910895EF92FF920F931F93CF93DF937A
S1130B40EC01162FE091C2202E2F30E082E4E89FC2
S1130B50F0011124ED51FD4D80818250823008F066
S1130B6084C002E4029FF001039FF00D1124ED51B3
S1130B70FD4D83E08083CBDE6091C220262F30E0E0
S1130B80029FF001039FF00D1124EC51FD4D808173
S1130B9090E0412F50E0E0E4F0E0E81BF90B4E1741
S1130BA05F07B4F442E4429F7001439FF00C1124A8
S1130BB08E0D9F1D412F50E0BE018D559D4D0E940D
S1130BC01C23F701EC51FD4D8081180F108354C094
S1130BD082E4829FF001839FF00D1124ED51FD4DBD
S1130BE081E08083243031051CF01092C22003C0C0
S1130BF06F5F6093C220E091C2202E2F30E082E428
S1130C00E89FF0011124ED51FD4D8081823069F59A
S1130C1082E4829FF001839FF00D1124EC51FD4D7D
S1130C20808190E060E470E0681B790B46175707F9
S1130C30E4F442E4429F7001439FF00C11248E0DB2
S1130C409F1D412F50E0BE018D559D4D0E941C23D8
S1130C50C7018D559D4DFC01EF5BFF4F2081120FA5
S1130C601083319723E0208307C08091C0208F5FD9
S1130C708093C02080E001C081E0DF91CF911F917B
S1130C800F91FF90EF900895CF93DF93CDB7DEB728
S1130C902797CDBFDEBF43E050E068E080E496E0F4
S1130CA00E949F1440E050E064E080E496E00E94DB
S1130CB09F1480E092ECA1E0B0E089839A83AB8337
S1130CC0BC8383E08D831E8281E08F83BE016F5FCE
S1130CD07F4F80EA98E017DDE1DE80E1E0E4F6E0B2
S1130CE085832796CDBFDEBFDF91CF91089580E144
S1130CF0E0E4F6E0868360E183E00E94561440E07D
S1130D0050E068E080E496E00E949F1440E050E0E8
S1130D1064E080E496E00E949F140ACB08950F9348
S1130D201F938091C3209091C420A091C520B091BD
S1130D30C6208C019D01689413F836952795179564
S1130D4007951694D1F7801B910BA20BB30B840F5C
S1130D50951FA11DB11D8093C3209093C420A0931F
S1130D60C520B093C620689413F8B695A7959795B7
S1130D7087951694D1F78D5B98408093ED239093DB
S1130D80EE231F910F9108950F931F93CF93DF9339
S1130D90CDB7DEB72B97CDBFDEBFBE016F5F7F4FF0
S1130DA080E092E0F8D1AE01485F5F4F61E080E0FF
S1130DB092E04DD28A858C7F8A87AE01485F5F4F6F
S1130DC061E080E092E00AD28A819B819F78906200
S1130DD09B8397E09D83817E8A831C82BE016F5F23
S1130DE07F4F80E092E095D181E0888788E0898711
S1130DF08A85837F8A876FE876E080E092E07DD001
S1130E00AE01485F5F4F61E080E092E0E7D180E0AF
S1130E1092E09DD08FB7F894E0E0F2E09081946086
S1130E2090838FBF28E000E010E031E08FB7F894A2
S1130E309081946090838FBF868180FFFDCF36833D
S1130E4084A195A1080F191F215081F780E092E039
S1130E5095D08A8188608A831C82BE016F5F7F4F30
S1130E6080E092E056D18A858C7F81608A87AE01CA
S1130E70485F5F4F61E080E092E0B0D180E092E0B3
S1130E8066D08FB7F894E0E0F2E0908194609083AC
S1130E908FBF81E00834164008F480E02B96CDBF64
S1130EA0DEBFDF91CF911F910F910895FC01128253
S1130EB013824483440F415045836083718380E0EF
S1130EC090E0089541E050E064E080E896E00E94FC
S1130ED09F1441E050E064E080E696E00E949F1495
S1130EE041E050E060E180E496E00E949F14E0E479
S1130EF0F6E088E2808B818B08952FB7F8948115F2
S1130F00924021F46093EF237093F0232FBF089550
S1130F108115924061F48091C72091E0980F9093DD
S1130F20C720811104C062E081E00C944A14089542
S1130F308115924059F48091C72081508093C72035
S1130F40811104C062E081E00C94561408951F934B
S1130F50CF93DF93EC011FB7F894DADF88818160C7
S1130F6088831FBF8FB7F894EAE9F4E290819F5F0A
S1130F7090838FBFDF91CF911F910895CF93CFB707
S1130F80F894FC0120812E7F2083D2DFCFBF8FB75E
S1130F90F894EAE9F4E29081915090838FBFCF9165
S1130FA008951F920F920FB60F9211242F933F931F
S1130FB04F935F936F937F938F939F93AF93BF935D
S1130FC0EF93FF93E0E0F2E044A155A1E091EF2319
S1130FD0F091F02361E080E092E00995FF91EF91B8
S1130FE0BF91AF919F918F917F916F915F914F913D
S1130FF03F912F910F900FBE0F901F9018951F9245
S11310000F920FB60F9211242F933F934F935F9338
S11310106F937F938F939F93AF93BF93EF93FF93BC
S1131020E8E2F2E044815581E091EF23F091F0236E
S113103062E080E092E00995FF91EF91BF91AF915A
S11310409F918F917F916F915F914F913F912F91DC
S11310500F900FBE0F901F9018951F920F920FB60E
S11310600F9211242F933F934F935F936F937F932A
S11310708F939F93AF93BF93EF93FF93E0E3F2E0DB
S113108044815581E091EF23F091F02364E080E006
S113109092E00995FF91EF91BF91AF919F918F914C
S11310A07F916F915F914F913F912F910F900FBE60
S11310B00F901F9018951F920F920FB60F92112444
S11310C02F933F934F935F936F937F938F939F934C
S11310D0AF93BF93EF93FF93E8E3F2E0448155812C
S11310E0E091EF23F091F02368E080E092E009952D
S11310F0FF91EF91BF91AF919F918F917F916F91EC
S11311005F914F913F912F910F900FBE0F901F90C1
S11311101895DF92EF92FF920F931F93CF93DF9373
S1131120EC018B01C11582E0D80769F561E270E03A
S113113082E00E94B81AE82EF12C60E270E082E0AE
S11311400E94B81AFE2CEE24E82ADFB6F894CE01E9
S1131150DFDE288182E08883EC86FD86F8018581C4
S11311609681888F998F82818A8384818C838381FD
S11311708B8381818983822F81709081892B8883DD
S1131180CE01D6DEDFBEDF91CF911F910F91FF908C
S1131190EF90DF900895FF920F931F93CF93DF9307
S11311A0EC018B01FFB6F894B3DE8881807CF801F2
S11311B08083888D998D858396838A8182838C81AF
S11311C084838B81838389818183CE01B1DEFFBED9
S11311D0DF91CF911F910F91FF900895CF92DF92ED
S11311E0EF92FF920F931F93CF93DF937C01D62E40
S11311F08A01862F837029F4962F9695969582E01E
S113120002C0962F80E090FF8F5FE701A09698E0E0
S1131210899FC00DD11D1124CFB6F894C70178DE83
S1131220F8018081888382818A8381818983D0FEC9
S113123002C083818E83C7017BDECFBEDF91CF9155
S11312401F910F91FF90EF90DF90CF900895CF9270
S1131250DF92EF92FF920F931F93CF93DF937C0162
S1131260D62EEA01862F837029F4962F96959695AB
S113127082E002C0962F80E090FF8F5F8701005EBE
S11312801F4F98E0899F000D111D1124CFB6F894CB
S1131290C7013EDEF8018081888382818A8381814F
S11312A08983D0FE02C086818B83C70141DECFBE15
S11312B0DF91CF911F910F91FF90EF90DF90CF902E
S11312C008951F920F920FB60F9211242F933F93FC
S11312D04F935F936F937F938F939F93AF93BF933A
S11312E0EF93FF93E091FA20F091FB20309709F0FF
S11312F00995FF91EF91BF91AF919F918F917F914C
S11313006F915F914F913F912F910F900FBE0F906E
S11313101F9018951F920F920FB60F9211242F93BE
S11313203F934F935F936F937F938F939F93AF9369
S1131330BF93EF93FF93E091F820F091F920309759
S113134009F00995FF91EF91BF91AF919F918F9112
S11313507F916F915F914F913F912F910F900FBEAD
S11313600F901F9018951F920F920FB60F92112491
S11313702F933F934F935F936F937F938F939F9399
S1131380AF93BF93EF93FF93E091F620F091F72092
S1131390309709F00995FF91EF91BF91AF919F911B
S11313A08F917F916F915F914F913F912F910F900A
S11313B00FBE0F901F9018951F920F920FB60F92A9
S11313C011242F933F934F935F936F937F938F9346
S11313D09F93AF93BF93EF93FF93E091F420F09129
S11313E0F520309709F00995FF91EF91BF91AF91E6
S11313F09F918F917F916F915F914F913F912F9129
S11314000F900FBE0F901F9018951F920F920FB65A
S11314100F9211242F933F934F935F936F937F9376
S11314208F939F93AF93BF93EF93FF93E091F22039
S1131430F091F320309709F00995FF91EF91BF9156
S1131440AF919F918F917F916F915F914F913F9158
S11314502F910F900FBE0F901F9018951F920F920F
S11314600FB60F9211242F933F934F935F936F9373
S11314707F938F939F93AF93BF93EF93FF93E091E9
S1131480F020F091F120309709F00995FF91EF9148
S1131490BF91AF919F918F917F916F915F914F9188
S11314A03F912F910F900FBE0F901F9018951F9290
S11314B00F920FB60F9211242F933F934F935F9384
S11314C06F937F938F939F93AF93BF93EF93FF9308
S11314D0E091EE20F091EF20309709F00995FF910B
S11314E0EF91BF91AF919F918F917F916F915F9198
S11314F04F913F912F910F900FBE0F901F90189511
S11315001F920F920FB60F9211242F933F934F9374
S11315105F936F937F938F939F93AF93BF93EF9357
S1131520FF93E091EC20F091ED20309709F00995BC
S1131530FF91EF91BF91AF919F918F917F916F91A7
S11315405F914F913F912F910F900FBE0F901F907D
S113155018951F920F920FB60F9211242F933F9359
S11315604F935F936F937F938F939F93AF93BF93A7
S1131570EF93FF93E091EA20F091EB20309709F08C
S11315800995FF91EF91BF91AF919F918F917F91B9
S11315906F915F914F913F912F910F900FBE0F90DC
S11315A01F9018951F920F920FB60F9211242F932C
S11315B03F934F935F936F937F938F939F93AF93D7
S11315C0BF93EF93FF93E091E820F091E9203097E7
S11315D009F00995FF91EF91BF91AF919F918F9180
S11315E07F916F915F914F913F912F910F900FBE1B
S11315F00F901F9018951F920F920FB60F921124FF
S11316002F933F934F935F936F937F938F939F9306
S1131610AF93BF93EF93FF93E091E620F091E7201F
S1131620309709F00995FF91EF91BF91AF919F9188
S11316308F917F916F915F914F913F912F910F9077
S11316400FBE0F901F9018951F920F920FB60F9216
S113165011242F933F934F935F936F937F938F93B3
S11316609F93AF93BF93EF93FF93E091E420F091A6
S1131670E520309709F00995FF91EF91BF91AF9163
S11316809F918F917F916F915F914F913F912F9196
S11316900F900FBE0F901F9018951F920F920FB6C8
S11316A00F9211242F933F934F935F936F937F93E4
S11316B08F939F93AF93BF93EF93FF93E091E220B7
S11316C0F091E320309709F00995FF91EF91BF91D4
S11316D0AF919F918F917F916F915F914F913F91C6
S11316E02F910F900FBE0F901F9018951F920F927D
S11316F00FB60F9211242F933F934F935F936F93E1
S11317007F938F939F93AF93BF93EF93FF93E09156
S1131710E020F091E120309709F00995FF91EF91D5
S1131720BF91AF919F918F917F916F915F914F91F5
S11317303F912F910F900FBE0F901F9018951F92FD
S11317400F920FB60F9211242F933F934F935F93F1
S11317506F937F938F939F93AF93BF93EF93FF9375
S1131760E091DE20F091DF20309709F00995FF9198
S1131770EF91BF91AF919F918F917F916F915F9105
S11317804F913F912F910F900FBE0F901F9018957E
S11317901F920F920FB60F9211242F933F934F93E2
S11317A05F936F937F938F939F93AF93BF93EF93C5
S11317B0FF93E091DC20F091DD20309709F009954A
S11317C0FF91EF91BF91AF919F918F917F916F9115
S11317D05F914F913F912F910F900FBE0F901F90EB
S11317E018951F920F920FB60F9211242F933F93C7
S11317F04F935F936F937F938F939F93AF93BF9315
S1131800EF93FF93E091DA20F091DB20309709F019
S11318100995FF91EF91BF91AF919F918F917F9126
S11318206F915F914F913F912F910F900FBE0F9049
S11318301F9018951F920F920FB60F9211242F9399
S11318403F934F935F936F937F938F939F93AF9344
S1131850BF93EF93FF93E091D820F091D920309774
S113186009F00995FF91EF91BF91AF919F918F91ED
S11318707F916F915F914F913F912F910F900FBE88
S11318800F901F9018951F920F920FB60F9211246C
S11318902F933F934F935F936F937F938F939F9374
S11318A0AF93BF93EF93FF93E091D620F091D720AD
S11318B0309709F00995FF91EF91BF91AF919F91F6
S11318C08F917F916F915F914F913F912F910F90E5
S11318D00FBE0F901F9018951F920F920FB60F9284
S11318E011242F933F934F935F936F937F938F9321
S11318F09F93AF93BF93EF93FF93E091D420F09124
S1131900D520309709F00995FF91EF91BF91AF91E0
S11319109F918F917F916F915F914F913F912F9103
S11319200F900FBE0F901F9018951F920F920FB635
S11319300F9211242F933F934F935F936F937F9351
S11319408F939F93AF93BF93EF93FF93E091D22034
S1131950F091D320309709F00995FF91EF91BF9151
S1131960AF919F918F917F916F915F914F913F9133
S11319702F910F900FBE0F901F9018951F920F92EA
S11319800FB60F9211242F933F934F935F936F934E
S11319907F938F939F93AF93BF93EF93FF93E091C4
S11319A0D020F091D120309709F00995FF91EF9163
S11319B0BF91AF919F918F917F916F915F914F9163
S11319C03F912F910F900FBE0F901F9018951F926B
S11319D00F920FB60F9211242F933F934F935F935F
S11319E06F937F938F939F93AF93BF93EF93FF93E3
S11319F0E091CE20F091CF20309709F00995FF9126
S1131A00EF91BF91AF919F918F917F916F915F9172
S1131A104F913F912F910F900FBE0F901F901895EB
S1131A201F920F920FB60F9211242F933F934F934F
S1131A305F936F937F938F939F93AF93BF93EF9332
S1131A40FF93E091CC20F091CD20309709F00995D7
S1131A50FF91EF91BF91AF919F918F917F916F9182
S1131A605F914F913F912F910F900FBE0F901F9058
S1131A7018951F920F920FB60F9211242F933F9334
S1131A804F935F936F937F938F939F93AF93BF9382
S1131A90EF93FF93E091CA20F091CB20309709F0A7
S1131AA00995FF91EF91BF91AF919F918F917F9194
S1131AB06F915F914F913F912F910F900FBE0F90B7
S1131AC01F9018951F920F920FB60F9211242F9307
S1131AD03F934F935F936F937F938F939F93AF93B2
S1131AE0BF93EF93FF93E091C820F091C920309702
S1131AF009F00995FF91EF91BF91AF919F918F915B
S1131B007F916F915F914F913F912F910F900FBEF5
S1131B100F901F901895CF93CFB7F894282F392F93
S1131B20211588E0380739F461E083E0B3D664E036
S1131B3083E0B0D62DC0203488E0380739F462E061
S1131B4083E0A8D664E083E0A5D622C0211589E00D
S1131B50380739F461E084E09DD664E084E09AD6E5
S1131B6017C0203489E0380739F462E084E092D663
S1131B7064E084E08FD60CC021153A4039F461E06A
S1131B8085E088D664E085E085D602C0CFBF09C071
S1131B908FB7F894EAE9F4E290819F5F90838FBF56
S1131BA0CFBFCF910895811528E0920729F460935F
S1131BB0FA207093FB200895803428E0920729F4DA
S1131BC06093EE207093EF200895811529E0920729
S1131BD029F46093E6207093E7200895803429E087
S1131BE0920729F46093DA207093DB20089581151D
S1131BF09A4021F46093D2207093D3200895CF9318
S1131C00DF93E091FC20F091FD20848183FF08C0E4
S1131C108860848383E0838386EF8093062189C070
S1131C20982F947131F083E083838FEF80930621A2
S1131C3080C086FF45C0A091FE20B091FF20809116
S1131C4000219091012114962D913C9115978217B2
S1131C5093076CF49C012F5F3F4F20930021309336
S1131C600121A80FB91F11968C91878362C08091BE
S1131C7002219091032118962D913C911997821776
S1131C809307C8F420910421222321F086818160E6
S1131C9086834FC016962D913C911797AC014F5FE8
S1131CA05F4F4093022150930321D901A80FB91F1C
S1131CB08C9187833EC083E083831092062139C0D0
S1131CC08823A4F5A091FE20B091FF2080910221E9
S1131CD09091032118962D913C911997821793079F
S1131CE0F8F416964D915C9117979C012F5F3F4F26
S1131CF020930221309303216781EA01C80FD91F81
S1131D00688318968D919C9119972817390718F4B0
S1131D1082E083830EC087E083831092062109C08A
S1131D2083E0838389EF8093062103C08BEF809344
S1131D300621DF91CF9108951F920F920FB60F9253
S1131D4011242F933F934F935F936F937F938F93BC
S1131D509F93AF93BF93EF93FF9351DFFF91EF9165
S1131D60BF91AF919F918F917F916F915F914F91AF
S1131D703F912F910F900FBE0F901F9018951F92B7
S1131D800F920FB60F9211242F933F934F935F93AB
S1131D906F937F938F939F93AF93BF93EF93FF932F
S1131DA02EDFFF91EF91BF91AF919F918F917F9122
S1131DB06F915F914F913F912F910F900FBE0F90B4
S1131DC01F901895FC01DB0114968C91858388EB98
S1131DD0818381E084831092052110920621E0EA38
S1131DE0F0E0828182608283789480E00895009795
S1131DF009F453C06115710509F451C0FB01328522
S1131E002091052102C031114CC02111FCCF2FB704
S1131E10F89431E03093052130E8309306212FBF48
S1131E208093FC209093FD206093FE207093FF200C
S1131E30109200211092012110920221109203218C
S1131E4040930421FB012081522F550F24813581B9
S1131E50232B11F4411103C0FC01568303C05160CC
S1131E60FC015683E6E0F1E280818038E9F3E091F9
S1131E70FC20F091FD2084818370813049F0ACEF27
S1131E80B0E2ED91FC911197848183708130C9F7A0
S1131E908091062110920521089588EF089588EF16
S1131EA0089586EF0895609180006270616024E077
S1131EB0829FC00111248C73682B80E890E00E94FB
S1131EC0ED19E0E8F0E0828180FDFDCF0895609196
S1131ED080006C73636080E890E00E94ED19E0E894
S1131EE0F0E0828180FDFDCF0895CF93DF9300D091
S1131EF0CDB7DEB770910C21272F30E0E62FF0E04C
S1131F004BE350E0421B530B4E175F070CF45AC0CF
S1131F10AF0149835A83F901E950FC4D49EC4083F0
S1131F20E1E0E70FF0E0E950FC4D2AED2083298140
S1131F303A81E2E0E70FF0E0E950FC4D308329817B
S1131F403A81E3E0E70FF0E0E950FC4D20837C5F49
S1131F5070930C21662391F0282FE82FF92F80919C
S1131F600C219191A82FB0E0A950BC4D9C938F5F98
S1131F7080930C218E2F821B861788F360910C218D
S1131F80E62FF0E0E950FC4D86E380836F5F6093B9
S1131F900C218091730084FD04C087EF93E20E94BA
S1131FA09A0580911021882369F087EF93E259D52F
S1131FB0882329F010920D2110920C2103C081E096
S1131FC080930D210F900F90DF91CF910895EF92A0
S1131FD0FF920F931F93CF93DF93CDB7DEB7E297B2
S1131FE0CDBFDEBF8AED898361E044EF53E20F2E5B
S1131FF0F3EFEF2EF3E2FF2EF02D06EF13E2DA01FA
S11320009C91F7018081981729F13081D8012C9196
S1132010822F86958323A091F123B091F223E4E0EB
S11320208E9FA00DB11D11248D919D910D90BC9199
S1132030A02D3F5F2323F701208321E030E02C0F04
S11320403D1F260F311DF90180839183A283B38341
S11320506C5FD5CFCE01019648DFE296CDBFDEBFDF
S1132060DF91CF911F910F91FF90EF900895CF933F
S1132070DF93CDB7DEB72797CDBFDEBF81E189837C
S11320809091B9248091B82489278A839091B724A8
S11320908091B62489278B838091B5248C83809189
S11320A0AF248D831E8282E08F8367E0CE01019688
S11320B01CDF2796CDBFDEBFDF91CF910895CF936C
S11320C0DF93CDB7DEB76097CDBFDEBF8CE58983E4
S11320D08091C62481708A838091C72481708F8304
S11320E09091C82491709C8720919A22222319F000
S11320F094609C8702C084608F83EAEBF4E2808161
S11321009181A281B3818B839C83AD83BE838481BF
S11321109581A681B78188879987AA87BB8780859F
S11321209185A285B3858D879E87AF87B88B60E143
S1132130CE010196DADE6096CDBFDEBFDF91CF918E
S1132140089580910D21813069F4809110218823B4
S113215049F087EF93E285D4882321F010920D2172
S113216010920C2108952F923F924F925F926F929A
S11321707F928F929F92AF92BF92CF92DF92EF9213
S1132180FF920F931F93CF93DF93CDB7DEB7A09742
S1132190CDBFDEBF10920B2108E314E20F2EF8E747
S11321A0EF2EF4E2FF2EF02D0F2EF7EC8F2EF4E23B
S11321B09F2EF02D0F2EF8ECAF2EF4E2BF2EF02D53
S11321C00F2EFFE06F2EF02D712C6894332432F81B
S11321D00F2EF3E04F2EF02D6894222421F80F2EB9
S11321E0F7E05F2EF02D80910B218430C1F48091B3
S11321F0092190910A212091072130910821821709
S1132200930748F4009709F4680101968093092123
S113221090930A21D3C050920B21852D15C08111B2
S113222009C0F8018081893C09F0C8C081E080932D
S11322300B21C4C0813041F4F80180818A3D09F04A
S1132240BDC020920B21BAC0823049F4F8018081CC
S1132250109207218093082140920B21AFC0833054
S1132260B9F4F80120818091072190910821822BF3
S11322708093072190930821CD9738F41092092177
S113228010920A2130920B2199C010920B2196C012
S1132290873009F093C0F8018081863309F08CC03F
S11322A0F60180818C3549F1803B61F0813109F080
S11322B083C08091092190910A21892B09F47CC063
S11322C0D6DE7AC0A9D5F0EBF9830E94591ACE0163
S11322D001960E947C1A8FE30E949B1A80E492E488
S11322E0A62DB72D0197A109B1090097A105B10544
S11322F0C9F780E0D8DDEBDD5FC0809109219091C2
S11323000A21409708F458C0F601318131FF0CC00E
S113231082819381A481B5818093BA249093BB2454
S1132320A093BC24B093BD24F601468141FF0CC0A8
S113233087819085A185B2858093BE249093BF2424
S1132340A093C024B093C124F601238521FF0CC0BF
S113235084859585A685B7858093C2249093C324EC
S1132360A093C424B093C524E6ECF4E23083F401D2
S11323704083F501208310929A220E94C406882388
S113238039F0F501808180FF0EC081E080939A22AC
S1132390F501808180FF07C0F401808180FD03C0C6
S11323A081E080939A220E94591A8AEB94E20E9457
S11323B07C1A81E00E949B1A10920B210F5F1F4F21
S11323C00E151F0509F00FCFA096CDBFDEBFDF911C
S11323D0CF911F910F91FF90EF90DF90CF90BF901E
S11323E0AF909F908F907F906F905F904F903F90B1
S11323F02F90089520910E21211108C020E4FC01A2
S1132400A8E3B4E201900D922A95E1F781E080936C
S11324100E21089580910F218E7F80930F210895BE
S113242080910F21816080930F2108958091102164
S1132430089581E080931021089510921021089549
S11324400895EF92FF920F931F93CF93DF93CDB72D
S1132450DEB76797CDBFDEBF8C017E0184E0E80E56
S1132460F11C8BE0F70111928A95E9F780E48C83E3
S1132470CE0101968A879B8783E090E08C879D87B5
S113248080E89AE1A6E0B0E08F87988BA98BBA8B9D
S11324904AE050E060E070E04B8B5C8B6D8B7E8B90
S11324A080E58F8B60E483E0F5D1BE01615F7F4FEF
S11324B080E894E087DCE0E8F4E08181886081834F
S11324C0198284E0F80184878A8387E485878B8373
S11324D081E0878B8FEF808F90E1918F828F40E036
S11324E0B70180E894E083DC811118C085E089831A
S11324F08FE08A831B8240E0B70180E894E077DCB8
S113250081110EC048E069E774E281EF93E20E9412
S1132510560721E0892B29F020E003C020E001C008
S113252020E0822F6796CDBFDEBFDF91CF911F9150
S11325300F91FF90EF900895FF920F931F93CF9305
S1132540DF93CDB7DEB72E97CDBFDEBF8C01BE01C2
S11325506C5F7F4F8BE0FB0111928A95E9F780E471
S11325608C8382E08D8381E090E088879987CE0117
S113257001968A879B8782E090E08C879D8741E063
S113258080E894E034DC811108C1898190E0982FBF
S113259088272A81822B81FD05C0F80180839183DD
S11325A091E002C19695879596958795969587951E
S11325B0F8018083918381E08D8341E0BE016C5FEB
S11325C07F4F80E894E013DC8111E9C0898190E0B9
S11325D0982F88272A81822B99232CF0F801828353
S11325E093837FEF07C0919581959109F8018283C8
S11325F0938371E0F80167892281338140EA5FE0C7
S1132600649FC001659F900D11242817390704F1B8
S1132610683000F5660F678B643059F0683089F0D4
S11326206230D1F484858F7E88608487FF24F3949C
S113263015C0F8018485877F80618487FF24F39423
S11326400DC0F801848588618487FF24F39406C053
S1132650F12C04C0F12C02C0FF24F394203AFFE0D3
S11326603F0784F4F801808D882379F08150808FAE
S113267081110BC08485877E848781E0878BFF244A
S1132680F39403C08FEFF801808F7203C001739F2E
S1132690900D1124F8018283938380819181803A83
S11326A09F4080F4F801828D8823C9F08150828F85
S11326B0811115C084858F7D848780E1818FFF24FB
S11326C0F3940DC08FEFF801828F818D803139F43E
S11326D080E2818F848580628487FF24F3948091D3
S11326E09A22882349F0F8948091ED239091EE2367
S11326F0F801828393837894F80142815381808125
S113270091816091F4232091F3233091F623621B8D
S113271063232091F523621709F443C02091F42325
S113272036953223E091F123F091F22364E0369F51
S1132730E00DF11D1124662757FD6095762FBA012F
S113274055274427A0E0B0E0482B592B6A2B7B2B5C
S113275040835183628373832F5F8091F623282300
S11327602093F42381E0F8121EC01886198683E0B2
S113277090E08C879D871982F80184858A838585FA
S11327808B8340E0BE016C5F7F4F80E894E02FDBD9
S113279091E0882349F090E007C090E005C090E004
S11327A003C090E001C091E0892F2E96CDBFDEBF1B
S11327B0DF91CF911F910F91FF900895CF93DF93F5
S11327C000D000D0CDB7DEB78FEF80937000809338
S11327D071008093720080937300809374008093DF
S11327E075008093760065E081E490E0F6D56CE1B5
S11327F070E082E0BDD68A836DE170E082E0B8D6F5
S1132800898389819A81019621F480E493E2898302
S11328109A8389819A818B839C83E0E6F0E08283AA
S11328208C8183838FB7F894E0E5F0E09081926027
S113283090838FBF818181FFFDCF8FB7F894A0E58E
S1132840B0E016969C911697997F16969C931697CE
S1132850E0E6F0E090E895839BEB968316969C91D6
S11328601697946016969C939081916090838FBF85
S113287061E080E490E0B1D58FB7F894E0E5F0E052
S113288090819E7F90838FBF2496CDBFDEBFDF9162
S1132890CF9108959FB7F894E82FF0E0E059FF4FE7
S11328A060958081682360839FBF08959FB7F894E3
S11328B0E82FF0E0E059FF4F8081682B60839FBFD1
S11328C00895863011F468E101C060E0E0E5F0E0CD
S11328D0818181FD24C08FB7F894908192609083A8
S11328E08FBF818181FFFDCF8FB7F894A0E5B0E061
S11328F016969C911697997F16969C931697E0E6E8
S1132900F0E090E895839BEB968316969C9116973E
S1132910946016969C939081916090838FBF6360BE
S113292084E490E05AD560E480E0B4CF089560E494
S113293080E0BCDF60E084E490E04FC50895CF936D
S1132940DF93FC01709620E030E0C62FD0E0DE017A
S1132950022E02C0B595A7950A94E2F7A0FD508314
S11329602F5F3F4F31962830310589F740FF0AC069
S113297041FF03C0FC01658302C0FC016683FC01C6
S1132980618302C0FC016283DF91CF91089580E0EE
S113299008953091A1242091A224822F90E00397DE
S11329A0E1F431111CC08091A5249091A6240497D0
S11329B0C1F482E191E28093A7249093A82487E252
S11329C095E18093AB249093AC2484E090E08093D1
S11329D0A9249093AA2481E0089580E0089580E0DA
S11329E0089580E0089581E08093962108950F93DF
S11329F01F9301E115E120E430E046E151E260E09B
S1132A0082E00E94BE1E1F910F91089510929A2198
S1132A101092982181E080939621E9DF811109CDFC
S1132A200895811107C06034710519F486E191E2BB
S1132A30E1DCDDCF089501CD089529EC34E146E0D1
S1132A4050E268E971E28AE991E23CC0089580911C
S1132A50A9249091AA24049719F482E191E2F0CC7C
S1132A6008950F931F93CF9320919621222329F148
S1132A70CFB7F89420E4E6E5F1E2DF011D922A9550
S1132A80E9F720E4FC01A6E5B1E201900D922A9554
S1132A90E1F703EF14E120E430E046E551E260E0C1
S1132AA081E80E94BE1E91E0892780939621CFBFC2
S1132AB09091962181E0892701C080E0CF911F91F8
S1132AC00F910895CF93DF93EA0140919F2444230B
S1132AD00CF062C0407609F040C02091A02426305A
S1132AE0E1F56ED1FC012285213299F52091A224D1
S1132AF02132B9F49C01275F3F4F2093A7243093E0
S1132B00A82481852091A5243091A62490E028173B
S1132B10390708F4C9018093A9249093AA2481E079
S1132B2064C0FC013785231316C0C093A724D09337
S1132B30A824208931898091A5249091A62428175E
S1132B40390708F4C9018093A9249093AA2481E049
S1132B504CC080E04AC080E048C04032E9F5209192
S1132B60A024223019F0233061F038C08093A724C8
S1132B709093A82481E090E08093A9249093AA24C0
S1132B8034C06093A7247093A82481E090E08093DC
S1132B90A9249093AA2429C04076403209F5409193
S1132BA0A0244A3039F04B3059F04930D9F4F901B6
S1132BB009951BC02091A224FC01208381E015C04B
S1132BC08091A5249091A624892B71F48091A1244D
S1132BD0FB01808381E009C080E007C080E005C07C
S1132BE080E003C080E001C080E0DF91CF910895D0
S1132BF0E091A121F091A2210190F081E02D2281A8
S1132C0033812E0F3F1FFC014081E40FF11DE217B9
S1132C10F307A0F481818430A1F0861306C014C0A8
S1132C2081818430A1F08617A9F08081E80FF11D1D
S1132C30E217F307A8F380E090E0089580E090E0C5
S1132C40089580E090E008958E2F9F2F089580E0EE
S1132C5090E008958E2F9F2F08958091A1248F775F
S1132C60D8C708959091A321992381F1E091A121DE
S1132C70F091A2210190F081E02D9481891740F513
S1132C80E0939F21F093A021228133812E0F3F1FD7
S1132C90E217F307F8F49181943061F49281981368
S1132CA009C09381961306C0E0939F21F093A0215D
S1132CB081E008959081E90FF11DE217F30758F3BD
S1132CC0E0939F21F093A02180E0089580E008958F
S1132CD080E0089580E00895FF920F931F93CF93AF
S1132CE0DF93C82F60E0BEDFF82E882381F1A09126
S1132CF0A121B091A221EC2FF0E0EE0FFF1F12965C
S1132D002D913C911397E20FF31F00811181D8019B
S1132D101696ED91FC9117970995682F8C2FA2DFD9
S1132D20F82E8823A1F0C0919F21D091A02165E0C5
S1132D30CE015EDFEC01009721F08A810E947E1FA4
S1132D40F6CFD8011296ED91FC91139709958F2D2A
S1132D50DF91CF911F910F91FF9008951F93CF930F
S1132D60DF93182F7FDF882339F1C0919F21D09101
S1132D70A02165E0CE013CDFEC01009741F04C81DD
S1132D805D816B818A8154D78111F3CF15C0A091E5
S1132D90A121B091A221812F90E0880F991F129652
S1132DA0ED91FC911397E80FF91F0190F081E02D4C
S1132DB00190F081E02D0995DF91CF911F91089545
S1132DC080919F219091A0210895B1C60895CF9339
S1132DD08091A3218823C1F0E091A121F091A22147
S1132DE00190F081E02D8481882371F0C0E08C2F64
S1132DF073DFCF5FE091A121F091A2210190F081D6
S1132E00E02D8481C81798F31092A3211092A42175
S1132E101092A521CF9108954DD6D9CF0895CF937F
S1132E208091A321882341F1E091A121F091A22175
S1132E30A081B18114968C918823F1F0C0E08C2F8D
S1132E4090E0880F991F0280F381E02DE80FF91FAD
S1132E500190F081E02D0084F185E02D309709F098
S1132E600995CF5FE091A121F091A221A081B181C8
S1132E7014968C91C81718F3CF910895EF92FF928E
S1132E800F931F93CF93DF931092A9241092AA2437
S1132E901092AB241092AC241092AD241092AE2464
S1132EA020919F2422230CF086C28091A524909126
S1132EB0A624009709F084C27AC22F7109F0ACC02D
S1132EC03091A024363081F0383009F49AC03111A1
S1132ED0A3C0029739F462E070E084EA91E29FD6DD
S1132EE001E0E8C100E0E6C12091A1243091A224D0
S1132EF0832F99278230910599F01CF4019739F0BA
S1132F0076C083309105D9F10F9759F170C0809143
S1132F10452090914620DC016C9170E080D656C02B
S1132F20E0914520F09146208189281708F061C07E
S1132F30C9019927880F991F880F991FE09147208D
S1132F40F0914820E80FF91F80819181FC01628192
S1132F50738165D6E091A724F091A82482E081834F
S1132F6035C08091492090914A20009709F443C0CC
S1132F70DC0112966D917C91139751D627C03327AB
S1132F802130310559F020F02230310551F035C09F
S1132F9064E070E08AEB90E242D618C0AFEAB0E297
S1132FA002C0A4EAB0E2E0E9F0E224EA30E28D9162
S1132FB090E081939193E217F307C9F786E1809338
S1132FC08E2066E170E08EE890E229D68091A524F7
S1132FD09091A6242091A9243091AA2482179307C2
S1132FE070F48093A9249093AA2401E063C100E0C3
S1132FF061C100E05FC100E05DC100E05BC101E0D0
S113300059C1019739F461E070E083EA91E207D68F
S113301001E050C100E04EC1213009F03FC03091C1
S1133020A0243A30D9F5019799F58091A3218823FA
S113303089F1C091A324D091A424E090A121F0901F
S1133040A221D701ED91FC918481C81728F560E095
S11330508C2F08DE082F882309F42CC1CE01992770
S1133060880F991FD7011296ED91FC911397E80FE1
S1133070F91F0190F081E02D0680F781E02D09957C
S113308080939E2161E070E08EE991E2C8D512C17F
S113309000E010C100E00EC100E00CC1223009F0D4
S11330A00BC12091A024211100C1029779F48091D1
S11330B0A3241FD690E080939C2190939D2162E0ED
S11330C070E08CE991E2ABD501E0F4C000E0F2C01D
S11330D02F7109F090C08091A024833009F4E7C0D7
S11330E018F48130B1F087C0853019F0893061F16E
S11330F082C08091A5249091A624892B41F48DE26D
S113310096E18093AB249093AC2401E0D3C000E01B
S1133110D1C08091A5249091A624892B89F4809113
S1133120A1249091A224019769F48091A421909103
S1133130A5218D7F8093A4219093A52101E0BAC09D
S113314000E0B8C000E0B6C08091A5249091A62408
S1133150892B09F046C060D5882309F444C0209126
S1133160A1243091A2243327E0914520F0914620F8
S1133170818990E082179307C0F129DE8091A12410
S11331809091A2248093A321882389F199278150C7
S1133190904C880F991F880F991FE0914720F09158
S11331A04820E80FF91FE093A121F093A221019098
S11331B0F081E02D84818823E1F0C0E060E08C2F71
S11331C0CDDD082F882309F475C0CF5FE091A121DC
S11331D0F091A2210190F081E02D8481C81770F351
S11331E069C000E067C000E065C000E063C001E0C2
S11331F061C001E05FC0213009F58091A0248B30CB
S1133200E9F48091A5249091A624892B99F48091C6
S1133210A321882389F0C091A324D091A1248C2FC9
S11332205BDD082F882309F445C06D2F8C2F96DDB4
S1133230082F40C000E03EC000E03CC0223009F04E
S11332403BC08091A024813019F08330B1F031C0AB
S11332508091A5249091A624892B59F48091A124CE
S11332609091A224892B39F48091A3245DD5082F51
S113327021C000E01FC000E01DC08091A5249091F2
S1133280A624892B71F48091A1249091A224892BE6
S113329051F4C3EAD4E28881F8D588814CD6082F4A
S11332A009C000E007C000E005C000E003C000E082
S11332B001C000E0011189C080919F248F71813089
S11332C0C1F58091A3218823A1F1C091A324D091B9
S11332D0A4240091A1211091A221D801ED91FC9187
S11332E08481C81730F560E08C2FBCDC882309F199
S11332F0CE019927880F991FD8011296ED91FC9160
S11333001397E80FF91F00811181D8011696ED91EA
S1133310FC9117970995682F8C2FA4DC882349F01A
S1133320D8011496ED91FC9115970995082F8111F8
S11333304CC080919F248F718230D9F58091A32154
S1133340882389F1E091A121F091A221A081B1818A
S113335014968C91882349F110E0212F30E0220F3C
S1133360331F0280F381E02DE20FF31FC081D1816E
S1133370EE81FF810995682F812F74DC082F882343
S113338021F1EC81FD810995082F81111EC01F5F79
S1133390E091A121F091A221A081B18114968C9198
S11333A01817D8F212C000E010C000E00EC000E010
S11333B00CC000E00AC0822F807609F07DCF88CE51
S11333C0322F307609F078CF78CD802FDF91CF91EE
S11333D01F910F91FF90EF9008951BBEFC0128ED03
S11333E024BF60830895CF93DF93EC0168E070E01D
S11333F082E0BED0888369E070E082E0B9D089833E
S11334006AE070E082E0B4D08A836BE070E082E02E
S1133410AFD08B836CE070E082E0AAD08C836DE047
S113342070E082E0A5D08D8360E170E082E0A0D0FE
S11334308E8362E170E082E09BD08F8363E170E071
S113344082E096D0888764E170E082E091D0898739
S113345065E170E082E08CD08A87DF91CF91089596
S1133460E0ECF1E027852223ECF3ECECF1E02081A1
S113347028602083DC01B05F8C919081977F9083DA
S11334800895CF93DF939B01E0ECF1E06785662319
S1133490ECF3CCECD1E0688168606883BC01705FB8
S11334A0C9010E941C238881877F8883DF91CF9183
S11334B00895E0ECF1E087858823ECF3E0ECF1E09B
S11334C0878581FF06C086E3828761E08BEC91E00B
S11334D084CF0895E0ECF1E097859923ECF3ECECCC
S11334E0F1E0908198609083A82FB0E0B05F6C9376
S11334F08081877F80830895EF92FF920F931F93BB
S1133500CF93DF938C01E0ECF1E087858823ECF323
S1133510780180E2E80EF11CE8018C2F801B699190
S1133520D9DFCE15DF05C9F7DF91CF911F910F9138
S1133530FF90EF9008951F93CF93DF93E0ECF1E0B9
S113354097859923ECF320E2829FC0011124C0ECFB
S1133550D1E01A82998388831A8585E38A8761E09A
S11335608BEC91E03ADF1A87DF91CF911F91089598
S11335704091CA01E62FF72F8093CA0184914093AA
S1133580CA010895811118C090919822992389F055
S11335909FB7F894EAE9F4E22081215020839FBF89
S11335A008C09FB7F894EAE9F4E220812F5F2083F2
S11335B09FBF80939822089590919822992389F32C
S11335C0F8CF0F93E8ECF4E080818F7D80838081D5
S11335D08F7D8083ECE6F2E202E0059310926E2286
S11335E010926F2200E2069300E40693E4E6F2E20E
S11335F000E2069300E406931092AB241092AC24EC
S11336001092AD241092AE241092A9241092AA24F0
S1133610109257220F9108950F9385E080935722BB
S1133620EDE6F2E204E00593E5E6F2E204E0059358
S11336300F9108950F9383E08093572210926E2286
S113364010926F22ECE6F2E202E006930F910895E5
S1133650E091AB24F091AC24309709F009950895DA
S11336600F93CF93DF9380915722833019F4F0DFC7
S1133670A8DF60C08091532290915422C091A92464
S1133680D091AA24C81BD90B71F5209155223091F1
S11336905622820F931F8093552290935622209195
S11336A0A5243091A6248217930721F08091A621A6
S11336B0882341F084E080935722E4E6F2E202E0BA
S11336C0069338C0E091AD24F091AE24309799F080
S11336D00995882381F01092532210925422C091AC
S11336E0A924D091AA24C830D10528F01092A6218B
S11336F0C8E0D0E003C081E08093A621C0936E228D
S1133700D0936F2280915322909154222091A72428
S11337103091A824280F391F2093702230937122EE
S1133720C80FD91FC0935322D0935422ECE6F2E27F
S113373002E00693DF91CF910F910895FC018181FE
S1133740877090E0FC013197E730F10518F4E250FE
S1133750FF4F6CC788E090E0089580E290E0089500
S113376080E490E0089580E890E0089580E091E09E
S1133770089580E092E008958FEF93E0089580E14A
S113378090E00895282F2F7030E0220F331F9927DF
S113379087FD90958827990F881F9927820F931F7B
S11337A002979C01220F331F220F331F220F331F56
S11337B0820F931F895D9D4D08950F93CF93809140
S11337C0CC0480FF62C081E08093CC04E4E6F2E2A2
S11337D000E80693ECE6F2E200E806938093CA045C
S11337E0E4E6F2E200E1069380915722882329F06F
S11337F08350823008F42CDFE4DE809166229091BD
S11338006722089709F043C088E0EBE4F2E2AFE9ED
S1133810B4E201900D928A95E1F7E8ECF4E080813E
S11338208062808380818062808328DBC82F81113D
S113383003C0F2DEC1E02CC080919F2488236CF485
S11338401092552210925622109253221092542212
S113385082E08093572204DF1BC02091A52430917D
S1133860A624232B11F4E6DE13C0109255221092E5
S11338705622109253221092542281E080935722B0
S1133880E4E6F2E202E0069303C0C0E001C0C1E056
S11338908C2FCF910F910895BF92CF92DF92EF9228
S11338A0FF920F931F93CF93DF93B82E6BDFEC013E
S11338B01B2D111F1127111F8B2D8F70E82EF12C3A
S11338C0EE0CFF1CE10EF11CC701880F991F880F35
S11338D0991F880F991F9C012C593D4D7901C901ED
S11338E02DDF6C01112309F459C0D70116962D91CF
S11338F03C9117978D819E81280F391F2D833E831C
S11339008B819C8128173907B9F1FC01E21BF30B69
S11339109F012115F4E03F0738F02FEF33E0C90190
S1133920B6014ED6281B390B888181FF09C0C90115
S1133930B60146D641E0892B09F040E0942F01C03E
S113394090E0888190FB81F98883D70116961D92B7
S11339501C92179712962D933C93139729813A81C1
S11339608D819E81820F931F14968D939C9315973E
S1133970F70102E0069394C0888181FF83C08D7FA4
S11339808883D70116961D921C92179712961D9242
S11339901C921397F70102E0069382C0D701129696
S11339A00D911C911397888182FF13C0E981FA81DC
S11339B02D813E818B819C81B60102D6B0E4BB9EF1
S11339C0B001112469597E4DAC01CF01820F931FC0
S11339D033D62D813E81200F311F2D833E83EB8111
S11339E0FC81E217F30710F4ED83FE83D7011696EA
S11339F08D919C9117978017910709F043C08D8191
S1133A009E81E817F90709F43DC0E81BF90BE1159D
S1133A10B4E0FB0740F0EFEFF3E0CF01B601D0D5FF
S1133A20E81BF90B05C0CF01B601CAD5E81BF90B99
S1133A30D70112961D921C921397EC15FD0578F48C
S1133A40888184608883B0E4BB9EC00111248959B5
S1133A509E4DF70184839583C682D7820FC0298146
S1133A603A818D819E81820F931FD70114968D9385
S1133A709C9315971696ED93FC931797F70102E024
S1133A8006930EC0888180FF0BC08E7F8883EF81F0
S1133A90F885309729F06D817E814B2D80E0099562
S1133AA0DF91CF911F910F91FF90EF90DF90CF9016
S1133AB0BF900895CF93CFB7F894E1ECF4E0808100
S1133AC08E7F80831092C00410820E94971480E03D
S1133AD059DD8FB7F894EEE9F4E290819150908328
S1133AE08FBFCFBFCF910895CF93CFB7F89481E024
S1133AF049DDEAECF4E080E4808380E28083E1EC59
S1133B00F4E0808181608083A9ECB4E08C918260D0
S1133B108C93E8ECF4E08081806480838C918160F4
S1133B208C93808180688083CFBFCF910895CF9399
S1133B30DF93C0E6D0E0188280E30E946114E0ECD9
S1133B40F4E080818064808381E08883CFB7F89437
S1133B501092652210926D221092752210927D228D
S1133B601092852210928D22E7E2F2E280818E7F0C
S1133B708083E0E3F2E280818E7F8083E9E3F2E2F6
S1133B8080818E7F8083E2E4F2E280818E7F808375
S1133B906AE170E082E0ECDC8F3F19F08093FA0474
S1133BA003C08FE18093FA046BE170E082E0E0DC13
S1133BB08F3F19F08093FB0403C08FE18093FB04D3
S1133BC0E0ECF4E08081826080838081806880837F
S1133BD080818061808384E692E2868397838081FA
S1133BE0806280838FEF8093C504E8ECF4E08081E9
S1133BF081608083109298228FB7F894EEE9F4E202
S1133C0090819F5F90838FBF6FDFCFBFDF91CF9194
S1133C1008958093C30408958091C3040895809304
S1133C20A7249093A8246093A9247093AA240895A8
S1133C30E82FEF70F0E0EE0FFF1F992787FD9095B6
S1133C408827990F881F9927E80FF91FEE0FFF1F88
S1133C50EE0FFF1FEE0FFF1FEC59FD4D8181807C9D
S1133C6009F043C06370613029F010F480E403C0AC
S1133C7080E801C080EC40385105E1F050F4403256
S1133C805105A1F04034510599F04031510561F4DA
S1133C9019C0411592E0590789F04F3F93E0590745
S1133CA079F04115514041F020E00DC022E00BC0F5
S1133CB023E009C024E007C025E005C026E003C0D6
S1133CC027E001C021E0118296E09083822B81835A
S1133CD08181807C803C21F481818770873039F038
S1133CE081818062818381E0089580E0089581E08C
S1133CF00895E82FEF70F0E0EE0FFF1F992787FD7E
S1133D0090958827990F881F9927E80FF91FEE0FC0
S1133D10FF1FEE0FFF1FEE0FFF1FEC59FD4D8181BA
S1133D2082FB882780F90895E82FEF70F0E0EE0F0A
S1133D30FF1F282F332727FD30952227330F221FFB
S1133D403327E20FF31FEE0FFF1FEE0FFF1FEE0FDF
S1133D50FF1FEC59FD4D918192FF0EC091819B7F15
S1133D60918310DDFC01808180FF06C08E7F8083FB
S1133D700780F085E02D099581E008957F928F9268
S1133D809F92AF92BF92CF92DF92EF92FF920F93E6
S1133D901F93CF93DF93982E862E5A016901F2DC8C
S1133DA07C01792C771C7724771CC92DCF70D0E047
S1133DB0CC0FDD1FC70DD11DCC0FDD1FCC0FDD1FB8
S1133DC0CC0FDD1FCC59DD4D8981807C09F44BC0BB
S1133DD08981807C803C19F0898182FD46C08FB73F
S1133DE0F894F701908190FF03C08FBF712C3EC0FF
S1133DF0F7019081916090838FBFF701A182B28215
S1133E00C382D4821582168207831087811006C06C
S1133E1091E0C114D10419F090E001C091E0F701E0
S1133E20808190FB81F98B7F8083772019F01E823B
S1133E301F8214C08981807C803C61F4CE017EDCC9
S1133E40BC01C601BDD3892B29F0F70180818E7F87
S1133E5080830CC01A821B821E821F82892D1CDD66
S1133E607724739403C0712C01C0712C872DDF91CA
S1133E70CF911F910F91FF90EF90DF90CF90BF9063
S1133E80AF909F908F907F900895FF920F931F9310
S1133E90CF93DF93182FF82EFF1CFF24FF1CC82F8D
S1133EA0CF70D0E0CC0FDD1FCF0DD11DCC0FDD1FA7
S1133EB0CC0FDD1FCC0FDD1FCC59DD4D63DCDC01E5
S1133EC0FE0102E005938C9180FF12C08E7F8C93DB
S1133ED01796ED91FC911897309751F0FF2019F047
S1133EE06E817F8102C06A817B81412F81E00995C7
S1133EF0DF91CF911F910F91FF900895CF93C82F19
S1133F00C4DFEC2FEF70F0E0EE0FFF1F8C2F99272A
S1133F1087FD90958827990F881F9927E80FF91F27
S1133F20EE0FFF1FEE0FFF1FEE0FFF1FEC59FD4DAD
S1133F301182CF9108950F93E82FEF70F0E0EE0F08
S1133F40FF1F282F332727FD30952227330F221FE9
S1133F503327E20FF31FEE0FFF1FEE0FFF1FEE0FCD
S1133F60FF1FEC59FD4D91819460918301E006930C
S1133F708CDF81E00F9108951F920F920FB60F927C
S1133F8011240F932F933F934F935F936F937F93DA
S1133F908F939F93AF93BF93EF93FF938091CB0441
S1133FA0882344F480E88093CA040E940F170E9477
S1133FB016128CC08091CB0482FF20C084E08093D1
S1133FC0CA0480916C2286FF81C08091CC0481FD5B
S1133FD07DC0F3DB81117AC080915722813011F4C6
S1133FE029DB74C0843009F071C0EDE6F2E204E02C
S1133FF00593E5E6F2E204E0059368C08091CB0402
S113400081FF5FC082E08093CA048091642286FFAE
S11340105DC08091CC0481FD59C0CFDB811156C0B5
S113402080915722823041F484E080935722E4E661
S1134030F2E202E006934AC0833009F047C0EDE69D
S1134040F2E204E00593E5E6F2E204E005933EC003
S113405080E18093CA0481E018DF81E816DF0E94C2
S1134060E7161092C304E5E6F2E2108296E090931C
S1134070642280E48083EDE6F2E2108290936C2265
S113408080838BE492E2809368229093692299DA88
S11340901DC08091CB0486FF08C080E48093CA04CD
S11340A080E070DA0E940A1211C08091CB0485FF6F
S11340B00DC080E28093CA0481E064DA0E94101289
S11340C005C08091CB0484FFE4CFC2CFFF91EF9170
S11340D0BF91AF919F918F917F916F915F914F911C
S11340E03F912F910F910F900FBE0F901F90189535
S11340F01F920F920FB60F9211240F931F932F93B9
S11341003F934F935F936F937F938F939F93AF935B
S1134110BF93CF93DF93EF93FF938091CC0481FD02
S113412003C04BDB8111B7C082E08093CC04809143
S1134130C5048195880FE4E6F2E2E81BF1092081C9
S113414031812456324236952795369527953695F2
S11341502795822F869520FF02C090E801C090E049
S1134160890FE82FEF70F0E0EE0FFF1F282F3327A1
S113417027FD30952227330F221F3327E20FF31F29
S1134180EE0FFF1FEE0FFF1FEE0FFF1FEC59FD4D4B
S1134190908195FF80C000E20693811177C08091E1
S11341A05722843019F454DA0CDA75C0C0916622AF
S11341B0D09167228091A9249091AA24009153223E
S11341C01091542298012C0F3D1F8217930718F465
S11341D0EC01C01BD10B8091A7249091A824AE01BF
S11341E06BE472E2800F911F27D20C0F1D1F009306
S11341F0532210935422289769F480915522909168
S11342005622800F911F2091A5243091A624821755
S1134210930788F00093A9241093AA24E091AD2475
S1134220F091AE24309729F00995811102C0F4D998
S113423032C000DA30C08091A9249091AA240817D2
S11342401907F9F4E091AD24F091AE24309711F4FC
S1134250E3D921C00995811102C0DED91CC0209187
S11342605522309156228091532290915422820FEC
S1134270931F8093552290935622109253221092AA
S11342805422E4E6F2E202E0069305C0803811F419
S1134290E7D901C001DBFF91EF91DF91CF91BF918D
S11342A0AF919F918F917F916F915F914F913F91CA
S11342B02F911F910F910F900FBE0F901F90189583
S11342C0809199228F5F809399220895CF93DF93F1
S11342D061E083E00E944A1480E098E00E948B0D24
S11342E0C0E0D8E08CED95E08EA39FA360E671E278
S11342F080E098E00E94D30D8E818C7F8E838E8126
S113430081608E838881807F84608883DF91CF91F0
S11343100895CF93DF93CDB7DEB7A097CDBFDEBFAF
S11343208FEA94E260D887E0E0EAF0E08283789450
S11343301092992410929A2410929B2410929C24F7
S113434010929D2481E080939E240E94DE1380EECF
S113435097E086D8803B69F48FEF8983AAD8CE0191
S11343600196CAD88FE3E7D8E091BE20F091BF2030
S113437009950E946207AADF0E94E51640E250E018
S11343806AEB74E280E290E07CD88091C6248F3F8F
S113439091F58DE39FEBA3E8BBE38093BA2490935C
S11343A0BB24A093BC24B093BD248FE692E1A3E880
S11343B0BAE38093BE249093BF24A093C024B09307
S11343C0C1248FE692E1A3E0BBE38093C2249093DF
S11343D0C324A093C424B093C52485E08093C62449
S11343E08093C72481E08093C82463D88AEB94E245
S11343F083D881E0A0D80F2EF4EFCF2EF3E2DF2E86
S1134400F02D0F2EF3EFEF2EF3E2FF2EF02D06EF3B
S113441013E26894442447F80F2EF4E85F2EF02D3D
S11344200F2EFEE16F2EF02D712C0F2EF0E88F2E43
S1134430F6E09F2EF02D6894332432F80F2EF0E628
S1134440AF2EF6E0BF2EF02D212C80910F2183702A
S1134450833041F5809199228B3F30F0109299225C
S11344600E9437100E945F108AED94E20E949C1211
S1134470811102C010920E21F6018081F701908112
S1134480891BF80190818923863010F00E94E70F80
S11344900E94A11080910E21882321F00E94B31064
S11344A010920E2180910F2180FF45C080910F2131
S11344B081FD41C0842D952DA62DB72D0197A1090D
S11344C0B1090097A105B105C9F780910F2180FFBB
S11344D0BCCF83E080930F21F4013582F50135824E
S11344E080E492E4AFE0B22D0197A109B1090097ED
S11344F0A105B105C9F70E9444068AED94E20E9421
S113450021120E94C406882341F0E8ECF4E2808181
S113451080FF9BCF81E080939A22E8ECF4E28081D3
S113452080FF93CFE7ECF4E2808180FD8ECF81E0C1
S113453080939A228ACF80910F2180FD86CF80912B
S11345400F2181FF82CF842D952DA62DB72D0197A4
S1134550A109B1090097A105B105C9F70E94770621
S113456080910F2180FD71CF10920F21F4013682CA
S1134570F5013682F894E9E9F4E28081811108C0FA
S1134580EAE9F4E28F5F91919923E1F3811102C08A
S113459078945BCFE8E4F0E09081E82FF0E0E1501C
S11345A0F04E917F8081892BE8E4F0E08083808164
S11345B0816080837894889580818E7F808345CFC5
S11345C0AA1BBB1B51E107C0AA1FBB1FA617B70735
S11345D010F0A61BB70B881F991F5A95A9F7809551
S11345E09095BC01CD010895A1E21A2EAA1BBB1B14
S11345F0FD010DC0AA1FBB1FEE1FFF1FA217B307AB
S1134600E407F50720F0A21BB30BE40BF50B661FC0
S1134610771F881F991F1A9469F760957095809584
S113462090959B01AC01BD01CF010895EE0FFF1FD2
S11346300590F491E02D0994FB01DC0102C0019086
S11146400D9241505040D8F70895F894FFCFE2
S113464E000E060C040006FFFF0901A10109020970
S113465E03150026FF00750895408102090409051B
S113466E150026FF007508954091020906090715E5
S113467E0026FF0075089504B102C006151B151D12
S113468E15C71400007C204B20000052204F203B05
S113469E20000902290001010080FA090400000229
S11346AE03000000092111010001223500070581D4
S11346BE0340000407050203400004001201000237
S11346CE00000008EB0302240001010200010003B4
S11346DE00000000000000000000000000000000C8
S11346EE00000000506F7765724D6574657200535B
S11346FE20466F6572737465720004030904FE40EC
S9030000FC
